{
  "contractName": "EnergyContract",
  "abi": [
    {
      "inputs": [],
      "payable": false,
      "stateMutability": "nonpayable",
      "type": "constructor"
    },
    {
      "anonymous": false,
      "inputs": [
        {
          "indexed": false,
          "internalType": "address",
          "name": "fromAddress",
          "type": "address"
        },
        {
          "indexed": false,
          "internalType": "address",
          "name": "toAddress",
          "type": "address"
        },
        {
          "indexed": false,
          "internalType": "uint256",
          "name": "contractID",
          "type": "uint256"
        }
      ],
      "name": "Bought",
      "type": "event"
    },
    {
      "anonymous": false,
      "inputs": [
        {
          "indexed": false,
          "internalType": "address",
          "name": "accountAddress",
          "type": "address"
        },
        {
          "indexed": false,
          "internalType": "uint256",
          "name": "quantity",
          "type": "uint256"
        },
        {
          "indexed": false,
          "internalType": "uint256",
          "name": "price",
          "type": "uint256"
        }
      ],
      "name": "Creation",
      "type": "event"
    },
    {
      "anonymous": false,
      "inputs": [
        {
          "indexed": false,
          "internalType": "address",
          "name": "accountAddress",
          "type": "address"
        },
        {
          "indexed": false,
          "internalType": "uint256",
          "name": "amount",
          "type": "uint256"
        }
      ],
      "name": "LogDepositMade",
      "type": "event"
    },
    {
      "constant": true,
      "inputs": [],
      "name": "owner",
      "outputs": [
        {
          "internalType": "address",
          "name": "",
          "type": "address"
        }
      ],
      "payable": false,
      "stateMutability": "view",
      "type": "function"
    },
    {
      "constant": true,
      "inputs": [
        {
          "internalType": "uint256",
          "name": "",
          "type": "uint256"
        }
      ],
      "name": "transactions",
      "outputs": [
        {
          "internalType": "uint256",
          "name": "id",
          "type": "uint256"
        },
        {
          "internalType": "uint256",
          "name": "buyer_id",
          "type": "uint256"
        },
        {
          "internalType": "uint256",
          "name": "seller_id",
          "type": "uint256"
        },
        {
          "internalType": "uint256",
          "name": "kwh",
          "type": "uint256"
        },
        {
          "internalType": "uint256",
          "name": "uprice",
          "type": "uint256"
        }
      ],
      "payable": false,
      "stateMutability": "view",
      "type": "function"
    },
    {
      "constant": false,
      "inputs": [
        {
          "internalType": "uint256",
          "name": "_seller",
          "type": "uint256"
        },
        {
          "internalType": "uint256",
          "name": "_kwh",
          "type": "uint256"
        },
        {
          "internalType": "uint256",
          "name": "_unitPrice",
          "type": "uint256"
        }
      ],
      "name": "createEnergyContract",
      "outputs": [],
      "payable": true,
      "stateMutability": "payable",
      "type": "function"
    },
    {
      "constant": false,
      "inputs": [
        {
          "internalType": "address",
          "name": "_purchaser",
          "type": "address"
        },
        {
          "internalType": "uint256",
          "name": "_id",
          "type": "uint256"
        },
        {
          "internalType": "uint256",
          "name": "_buyer",
          "type": "uint256"
        }
      ],
      "name": "buyEnergyContract",
      "outputs": [],
      "payable": true,
      "stateMutability": "payable",
      "type": "function"
    }
  ],
  "bytecode": "0x608060405234801561001057600080fd5b50336000806101000a81548173ffffffffffffffffffffffffffffffffffffffff021916908373ffffffffffffffffffffffffffffffffffffffff160217905550600060018190555061047e806100686000396000f3fe60806040526004361061003f5760003560e01c806341da2e9e146100445780638da5cb5b1461009c5780639ace38c2146100f3578063b1aa0bc21461015e575b600080fd5b61009a6004803603606081101561005a57600080fd5b81019080803573ffffffffffffffffffffffffffffffffffffffff16906020019092919080359060200190929190803590602001909291905050506101a0565b005b3480156100a857600080fd5b506100b16102f7565b604051808273ffffffffffffffffffffffffffffffffffffffff1673ffffffffffffffffffffffffffffffffffffffff16815260200191505060405180910390f35b3480156100ff57600080fd5b5061012c6004803603602081101561011657600080fd5b810190808035906020019092919050505061031c565b604051808681526020018581526020018481526020018381526020018281526020019550505050505060405180910390f35b61019e6004803603606081101561017457600080fd5b81019080803590602001909291908035906020019092919080359060200190929190505050610352565b005b6040518060a001604052806001548152602001828152602001600360008581526020019081526020016000206002015481526020016003600085815260200190815260200160002060030154815260200160036000858152602001908152602001600020600401548152506003600084815260200190815260200160002060008201518160000155602082015181600101556040820151816002015560608201518160030155608082015181600401559050507f0a553f03004ca54c18763b68c9ef162311a3c847d15f2d2e12a39cdf28e966ce338484604051808473ffffffffffffffffffffffffffffffffffffffff1673ffffffffffffffffffffffffffffffffffffffff1681526020018373ffffffffffffffffffffffffffffffffffffffff1673ffffffffffffffffffffffffffffffffffffffff168152602001828152602001935050505060405180910390a1505050565b6000809054906101000a900473ffffffffffffffffffffffffffffffffffffffff1681565b60036020528060005260406000206000915090508060000154908060010154908060020154908060030154908060040154905085565b6040518060a0016040528060015481526020016000815260200184815260200183815260200182815250600360006001548152602001908152602001600020600082015181600001556020820151816001015560408201518160020155606082015181600301556080820151816004015590505060018054016001819055507f0c42492e9a23edb18d7a10ab834f9871ecd80970bffc97312a8a1c05b88e807d338383604051808473ffffffffffffffffffffffffffffffffffffffff1673ffffffffffffffffffffffffffffffffffffffff168152602001838152602001828152602001935050505060405180910390a150505056fea265627a7a723158209f742b37df0a2ab6853de7bfc8424e1b399d266ee1a1969512829ae8bd840f5b64736f6c63430005100032",
  "source": "pragma solidity >=0.4.21 <0.7.0;\n\ncontract EnergyContract{\n  address public owner;\n  uint salesCounter;\n  constructor() public {\n      owner = msg.sender;\n      salesCounter = 0;\n  }\n  \n  struct Transaction {\n      uint id;\n      uint buyer_id;\n      uint seller_id;\n      uint kwh;\n      uint uprice;\n  }\n  \n  // Events - publicize actions to external listeners\n  event LogDepositMade(address accountAddress, uint amount);\n  event Creation(address accountAddress, uint quantity, uint price);\n  event Bought(address fromAddress, address toAddress, uint contractID);\n  \n  mapping (address => uint) private balances;\n  mapping (uint => Transaction) public transactions;\n  \n  /*ENERGY CONTRACT TRANSACTIONS*/ \n  function createEnergyContract(uint _seller, uint _kwh, uint _unitPrice) public payable {\n    transactions[salesCounter] = Transaction({\n        id: salesCounter,\n        buyer_id: 0x00,\n        seller_id: _seller,\n        kwh: _kwh,\n        uprice: _unitPrice\n    });\n    salesCounter = salesCounter + 1;\n    emit Creation(msg.sender, _kwh, _unitPrice);\n  }\n  \n  // seller address can get from the owner that created the contract\n  function buyEnergyContract(address _purchaser, uint _id, uint _buyer) public payable {\n    transactions[_id] = Transaction({\n        id: salesCounter,\n        buyer_id: _buyer,\n        seller_id: transactions[_id].seller_id,\n        kwh: transactions[_id].kwh,\n        uprice: transactions[_id].uprice\n    });\n    emit Bought(msg.sender, _purchaser, _id);\n  }\n}\n",
  "sourcePath": "/Users/bryanphang/Desktop/Personal_info/Bryan/Tutorials/42.Soular_Blockchain/Soular_infura_react/truffle_blockchain/contracts/EnergyContract.sol",
  "compiler": {
    "name": "solc",
    "version": "0.5.16+commit.9c3226ce.Emscripten.clang"
  },
  "schemaVersion": "3.2.0",
  "updatedAt": "2020-06-23T17:10:40.546Z",
  "networkType": "ethereum",
  "devdoc": {
    "methods": {}
  },
  "userdoc": {
    "methods": {}
  }
}