{
  "contractName": "Energy",
  "abi": [
    {
      "inputs": [],
      "payable": false,
      "stateMutability": "nonpayable",
      "type": "constructor"
    },
    {
      "constant": true,
      "inputs": [
        {
          "internalType": "uint256",
          "name": "",
          "type": "uint256"
        }
      ],
      "name": "credit",
      "outputs": [
        {
          "internalType": "uint256",
          "name": "",
          "type": "uint256"
        }
      ],
      "payable": false,
      "stateMutability": "view",
      "type": "function"
    },
    {
      "constant": true,
      "inputs": [],
      "name": "owner",
      "outputs": [
        {
          "internalType": "address",
          "name": "",
          "type": "address"
        }
      ],
      "payable": false,
      "stateMutability": "view",
      "type": "function"
    },
    {
      "constant": true,
      "inputs": [
        {
          "internalType": "uint256",
          "name": "",
          "type": "uint256"
        }
      ],
      "name": "sellable",
      "outputs": [
        {
          "internalType": "uint256",
          "name": "",
          "type": "uint256"
        }
      ],
      "payable": false,
      "stateMutability": "view",
      "type": "function"
    },
    {
      "constant": true,
      "inputs": [
        {
          "internalType": "uint256",
          "name": "",
          "type": "uint256"
        }
      ],
      "name": "transactions",
      "outputs": [
        {
          "internalType": "uint256",
          "name": "id",
          "type": "uint256"
        },
        {
          "internalType": "uint256",
          "name": "buyer_id",
          "type": "uint256"
        },
        {
          "internalType": "uint256",
          "name": "seller_id",
          "type": "uint256"
        },
        {
          "internalType": "uint256",
          "name": "kwh",
          "type": "uint256"
        },
        {
          "internalType": "uint256",
          "name": "uprice",
          "type": "uint256"
        }
      ],
      "payable": false,
      "stateMutability": "view",
      "type": "function"
    },
    {
      "constant": false,
      "inputs": [
        {
          "internalType": "uint256",
          "name": "_seller",
          "type": "uint256"
        },
        {
          "internalType": "uint256",
          "name": "_kwh",
          "type": "uint256"
        }
      ],
      "name": "sell",
      "outputs": [],
      "payable": false,
      "stateMutability": "nonpayable",
      "type": "function"
    },
    {
      "constant": false,
      "inputs": [
        {
          "internalType": "uint256",
          "name": "_buyer",
          "type": "uint256"
        },
        {
          "internalType": "uint256",
          "name": "_seller",
          "type": "uint256"
        },
        {
          "internalType": "uint256",
          "name": "_kwh",
          "type": "uint256"
        },
        {
          "internalType": "uint256",
          "name": "_uprice",
          "type": "uint256"
        }
      ],
      "name": "buy",
      "outputs": [],
      "payable": true,
      "stateMutability": "payable",
      "type": "function"
    },
    {
      "constant": false,
      "inputs": [
        {
          "internalType": "uint256",
          "name": "_toaccount",
          "type": "uint256"
        },
        {
          "internalType": "uint256",
          "name": "_amount",
          "type": "uint256"
        }
      ],
      "name": "topup",
      "outputs": [],
      "payable": false,
      "stateMutability": "nonpayable",
      "type": "function"
    }
  ],
  "bytecode": "0x608060405234801561001057600080fd5b50336000806101000a81548173ffffffffffffffffffffffffffffffffffffffff021916908373ffffffffffffffffffffffffffffffffffffffff16021790555060006001819055506104d2806100686000396000f3fe6080604052600436106100705760003560e01c80638da5cb5b1161004e5780638da5cb5b146101555780639ace38c2146101ac578063d79875eb14610217578063ff7be29e1461025c57610070565b80631281311d14610075578063184ff47f146100c157806378da744b14610106575b600080fd5b6100bf6004803603608081101561008b57600080fd5b81019080803590602001909291908035906020019092919080359060200190929190803590602001909291905050506102ab565b005b3480156100cd57600080fd5b50610104600480360360408110156100e457600080fd5b8101908080359060200190929190803590602001909291905050506103bb565b005b34801561011257600080fd5b5061013f6004803603602081101561012957600080fd5b81019080803590602001909291905050506103ed565b6040518082815260200191505060405180910390f35b34801561016157600080fd5b5061016a610405565b604051808273ffffffffffffffffffffffffffffffffffffffff1673ffffffffffffffffffffffffffffffffffffffff16815260200191505060405180910390f35b3480156101b857600080fd5b506101e5600480360360208110156101cf57600080fd5b810190808035906020019092919050505061042a565b604051808681526020018581526020018481526020018381526020018281526020019550505050505060405180910390f35b34801561022357600080fd5b5061025a6004803603604081101561023a57600080fd5b810190808035906020019092919080359060200190929190505050610460565b005b34801561026857600080fd5b506102956004803603602081101561027f57600080fd5b8101908080359060200190929190505050610485565b6040518082815260200191505060405180910390f35b600082820290506000831180156102d5575080600460008781526020019081526020016000205410155b6102de57600080fd5b8060046000878152602001908152602001600020600082825403925050819055508060046000868152602001908152602001600020600082825401925050819055508260036000868152602001908152602001600020600082825403925050819055506040518060a0016040528060015481526020018681526020018581526020018481526020018381525060026000600154815260200190815260200160002060008201518160000155602082015181600101556040820151816002015560608201518160030155608082015181600401559050505050505050565b600081116103c857600080fd5b8060046000848152602001908152602001600020600082825401925050819055505050565b60046020528060005260406000206000915090505481565b6000809054906101000a900473ffffffffffffffffffffffffffffffffffffffff1681565b60026020528060005260406000206000915090508060000154908060010154908060020154908060030154908060040154905085565b8060036000848152602001908152602001600020600082825401925050819055505050565b6003602052806000526040600020600091509050548156fea265627a7a72315820362484e449bf30cd7f92e481a65968f88250d5eb798e677014936d613ab2d3c964736f6c63430005100032",
  "source": "pragma solidity >=0.4.21 <0.7.0;\n\ncontract Energy{\n    \n    address public owner;\n    uint salesCounter;\n    constructor() public {\n      owner = msg.sender;\n      salesCounter = 0;\n    }\n    \n    struct Transaction {\n      uint id;\n      uint buyer_id;\n      uint seller_id;\n      uint kwh;\n      uint uprice;\n    }\n    \n    mapping (uint => Transaction) public transactions;\n    mapping (uint => uint) public sellable;\n    mapping (uint => uint) public credit;\n    \n    /*ENERGY CONTRACT TRANSACTIONS*/ \n    \n    function sell(uint _seller, uint _kwh) public {\n        sellable[_seller] += _kwh;\n    }\n    \n    // seller address can get from the owner that created the contract\n    function buy(uint _buyer, uint _seller, uint _kwh, uint _uprice) public payable {\n      uint total_price = _uprice*_kwh;\n      require(_kwh > 0 && credit[_buyer] >= total_price);\n      credit[_buyer] -= total_price;\n      credit[_seller] += total_price;\n      sellable[_seller] -= _kwh;\n      transactions[salesCounter] = Transaction({\n        id: salesCounter,\n        buyer_id: _buyer,\n        seller_id: _seller,\n        kwh: _kwh,\n        uprice: _uprice\n      });\n    }\n    \n    function topup(uint _toaccount, uint _amount) public {\n      require(_amount > 0);\n      credit[_toaccount] += _amount;\n    }\n}",
  "sourcePath": "/Users/bryanphang/Desktop/Personal_info/Bryan/Tutorials/42.Soular_Blockchain/Soular_infura_react/truffle_blockchain/contracts/Energy.sol",
  "compiler": {
    "name": "solc",
    "version": "0.5.16+commit.9c3226ce.Emscripten.clang"
  },
  "schemaVersion": "3.1.0",
  "updatedAt": "2020-07-30T00:46:32.684Z",
  "devdoc": {
    "methods": {}
  },
  "userdoc": {
    "methods": {}
  }
}